:080000000C9445000C94720001
:100008000C9486000C9400000C9400000C948B0057
:100018000C9400000C9400000C9400000C94000058
:100028000C9400000C9400000C9400000C94000048
:100038000C9400000C9400000C9400000C94000038
:100048000C9400000C9400000C9400001027E803A6
:1000580064000A0001000010000110000100000007
:100068000000000000000000253032643A253032DC
:10007800640080C00A000400660002007E027A0064
:100088000000F894EE27ECBBF1E0FBBFEBBFE5BF47
:100098008DE0A2E0BB27ED938A95E9F780E098E030
:1000A800A0E6ED930197E9F7ECE7F0E085919591EB
:1000B800009761F0A591B59105901590BF01F001E9
:1000C80005900D920197E1F7FB01F0CFEFE5EDBF49
:1000D800E8E0EEBFC0E6D2E00C94EB000A92EA93A7
:1000E800FA93EFB7EA93042C052819F04424552411
:1000F80003C0E1E0F0E02F01E991EFBFF991E99148
:10010800099018950E9486030E94940352C00E9489
:100118008603E2EBE4BD042C052809F44AC0F30188
:1001280031963F01E4E6F0E0E615F705E9F46624C8
:100138007724CC24DD24F40131964F01ECE3F0E080
:100148008E169F068CF0D4010E941B044F01F50106
:1001580031965F01EBE3F0E0EA15FB052CF4AA24E5
:10016800BB24E1E0F0E06F01E0E0EA93A0E00E9448
:10017800EE02E0E6F2E0FA93EA93E0E7F0E0FA93C1
:10018800EA93F5010E9403040E943104F4010E94DD
:1001980003040E94310488E00E949A022C96A0E68B
:1001A800B2E00E942D030C2C0D2811F0979A01C083
:1001B8009798E991EFBFF991E991B991A99199912E
:1001C800899179916991F9901990099018950E94EF
:1001D8009403E0E0EABBEBBBE7BBE8BBE4BBE5BBF1
:1001E800E0E8E1BBE0E0E2BBE3BFE2BFECBFEFBDAC
:1001F800EEBDEDBDECBDE7BDE6BDEBBDEABDE9BDBD
:10020800E8BDE2BDE7E0E5BDE2EBE4BDE0E0E3BD6B
:10021800E0E4E9BFEBB7E06CEBBFEDE0E5BFE0E0A1
:10022800E4BFE0ECEABFE0E0EAB9E0E8E8B9E0E022
:10023800E0BFE6B9EDB9E6BFA0E10E943E037894BD
:10024800FFCFFFCFBA93AA931A930A93AA81BB81CF
:1002580012960E942904309759F1AA81BB811496FD
:100268000E9429048F01309761F00230E0E01E07F8
:1002780098F0F80131978F01AA81BB811496ED930C
:10028800FC93AA81BB811296ED91FD913196FE9364
:10029800EE933197AC81A083AA81BB810E94290487
:1002A800FF232AF0ED91FD913196FE93EE9306C05F
:1002B800AA81BB81EFEFFFEFED93FC9319810881D1
:1002C80025960895BA93AA9326970E94360410E0BB
:1002D800AC85BD85E0E0F0E0ED93FC93EA89FB890D
:1002E8003196EA8BFB8B3197E4912E2FE03009F49D
:1002F80015C1E12FE03039F4253211F411E002C0C4
:100308000E94B7030AC1E130A9F4253219F40E940A
:10031800B70302C112E040E000E02D3211F401E021
:10032800FCC02B3211F44BE2F8C0203211F440E249
:10033800F4C002C0E23039F450E013E0203311F485
:100348000068EBC003C0E33009F0E7C0203310F0C9
:100358002A3308F007C0AAE05A9F502DE22FE05335
:100368005E0FDBC0E22FE33649F40E94BE03E88942
:10037800F989A481AA930E94C403CEC0E33741F44B
:100388000E94BE030E94CA030E946D031E2F0AC06A
:10039800E03761F40E94BE030E94CA030E947903F9
:1003A8001E2F086002600F7730E034C0E43611F089
:1003B800E93611F4046002C0E53731F4E4E5F0E011
:1003C800EE83FF8315E00CC0E83511F4086003C024
:1003D800E83709F0A1C0EEE5F0E0EE83FF8314E012
:1003E80002FF14C00E94BE030E94D403AB85AA2357
:1003F8003AF4EA85FB850E94FF03EA87FB874DE212
:10040800403011F01F5F01C00B7F04C00E94BE0383
:100418000E94D40300FD11C0151778F407FF08C027
:1004280002FF04C00B7F242F115001C020E301C03C
:1004380020E20E94B7035150EFCF312F01FF17C0C0
:100448003030A1F003FF06C0EE81FF812591EE83D5
:10045800FF8305C0AE81BF812D91AE83BF830E940B
:10046800B703503009F051503150EACF4BC020E368
:10047800EE81FF810E942D04E887F987EE81FF81D4
:100488003296EE83FF83E885F985AA85BB85AE178A
:10049800BF0750F02F5FA885B985EA85FB85EA1B61
:1004A800FB0BEA87FB87EFCF2A3328F003FF02C054
:1004B800295F01C0295D04FD1AC0213320F4A885F5
:1004C800B985119709F409C0531710F000FF01C04E
:1004D80013C020E207FF0BC020E3006102FF07C042
:1004E8000B7F4A930E94C403503009F051500E9478
:1004F800B703503009F051503150A885B98512978B
:1005080008F0B5CF00FF08C0503031F05150E0E29C
:10051800EA930E94C403F8CF10E0E0CEAC85BD8515
:100528000E9429040E943D0464960895FF92F82EC3
:1005380026970E9438040E94DC03309719F4EFEFE5
:10054800FFEF23C0DE0116960E94FB038D010E9477
:10055800DC03EE83FF83E0E0E887E987DE011A9693
:100568000E94FB030E942904FA93EA931A930A93C0
:10057800E6E2F1E0FA93EA93DE011A96A3DE9F0120
:10058800AE81BF81E0E0EC93F9010E943F042A9616
:10059800FF900895AA93E5B3EF70AE2FE881E07F4E
:1005A800EA2BE5BB8DE08A95F1F7AA9A8DE08A954A
:1005B800F1F7AA988DE08A95F1F789C0AA93A881E6
:1005C800E9DFE881E295E883A881E4DF85E88A9598
:1005D800F1F77DC0AA93E881F0E0E258FD4FE08191
:1005E800A981AE0FEBDFE981E0938202E881E09315
:1005F800830222960895A2E00E94E303ACE0DEDFC6
:10060800A1E00E94E303E0E0E0938302E09382022A
:100618000895AA93A881AA3031F0E0918402A091AC
:100628008202AE1760F0E0E0EA93A0918302AF5F28
:10063800A0938302CFDFA881AA3009F448C0E091D3
:100648008202EF5FE0938202A89AA881B7DFA89898
:100658003EC0BA93AA931A93A981BA81ED91A9834E
:10066800BA831E2FE03019F0A12FD3DFF5CF188100
:1006780023960895AA93E4B3E06FE4BBA29AA09AE4
:10068800A19AAA98A898A998E881E0938402E058CA
:10069800E0938002E881E054E0938102A4E1B0E0B5
:1006A8000E94F1030E94E9030E94E9030E94E90302
:1006B800A0E270DF88EC90E00197F1F7A8E27EDF16
:1006C800A4E07CDFA5E87ADFA6E078DF94DF219656
:1006D8000895BA93AA93A991B991EE27FF276D912E
:1006E800662311F03196FBCF0895BA93AA93AA27EF
:1006F800BB27E991F9910590002011F01196FBCFE5
:10070800FD0108950A921A92FA926A937A938A934B
:100718009A93AA93BA93EA93FA93EFB7EA93089550
:1007280089B29924A6B2BB24E0E0EA93A0E00E9433
:10073800EE02E0E6F2E0FA93EA93E0E7F0E0FA93FB
:10074800EA93F5010E9403040E943104F4010E9417
:1007580003040E94310488E00E949A022C96A0E6C5
:10076800B2E00C942D032A93AD85BE85EF85F889F8
:1007780009950895E889F9893497E88BF98B0895E4
:10078800AD85BE85EF85F88909950895A889B98949
:1007980014960E942904EE83FF83AE81BF810895D9
:1007A800A889B98914960E942904EA87FB870895C5
:1007B800DE011C960E94FB030E94290408950E94F2
:1007C800E202A3E0B0E00C94F103A0E30E94CE02A1
:1007D80088EC90E00197F1F70895109639F080EDD4
:1007E80097E00197F1F7A8951197C9F708950024A4
:1007F800AF0DB01D0895F195E195F04008956F2F64
:10080800660F660B762F08950024112490E1AA0F35
:10081800BB1F001C111C0E1A1F0A18F40E0E1F1EF7
:1008280001C0A1609A9599F7FD01D0010895E89457
:10083800B7FF04C0A095B09511966894F7FDDBDF6B
:10084800E3DFFD010EF4D7DF0895ED91FC911197D8
:1008580008950590F491E02D08957A936A93FA9398
:10086800EA9308955A934A933A932A931A930A93C8
:1008780008955D814C813B812A8119810881089501
:00000001FF
